:100000000C942A000C9434000C9434000C943400AA
:100010000C9434000C9434000C9434000C94340090
:100020000C9434000C9434000C9434000C94340080
:100030000C9434000C9434000C9434000C94340070
:100040000C9434000C9434000C9434000C94340060
:100050000C94340011241FBECFE5D8E0DEBFCDBF25
:100060000E9436000C9410010C940000DF93CF9393
:1000700000D000D0CDB7DEB7EAE3F0E08FEF8083A9
:10008000E7E3F0E081E08083E8E3F0E081E0808373
:10009000E4E3F0E01082E5E3F0E087E0808319829A
:1000A000ABE3B0E0EBE3F0E08081482F8981282FBB
:1000B00030E081E090E0022E02C0880F991F0A9480
:1000C000E2F7842B8C93E3E3F0E0808181708C83F2
:1000D000E3E3F0E08081869581708B83E3E3F0E0D9
:1000E00080818695869581708A838C818823C9F565
:1000F000ABE3B0E0EBE3F0E08081482F8981282F6B
:1001000030E081E090E0022E02C0880F991F0A942F
:10011000E2F7809584238C938981882319F487E002
:10012000898303C0898181508983ABE3B0E0EBE32D
:10013000F0E08081482F8981282F30E081E090E035
:10014000022E02C0880F991F0A94E2F7842B8C9329
:10015000E3E3F0E08081882F90E081709070009759
:10016000B9F38B818823E9F4ABE3B0E0EBE3F0E093
:100170008081482F8981282F30E081E090E0022E95
:1001800002C0880F991F0A94E2F784278C93E3E357
:10019000F0E080818695882F90E0817090700097C4
:1001A000B1F38A81882309F08ECFABE3B0E0EBE3B3
:1001B000F0E08081482F8981282F30E081E090E0B5
:1001C000022E02C0880F991F0A94E2F780958423BB
:1001D0008C938981873011F4198203C089818F5FE4
:1001E0008983ABE3B0E0EBE3F0E08081482F8981C5
:1001F000282F30E081E090E0022E02C0880F991F86
:100200000A94E2F7842B8C93E3E3F0E080818695F7
:100210008695882F90E0817090700097A9F353CF56
:04022000F894FFCF80
:00000001FF
